{
  "contractName": "Item",
  "abi": [
    {
      "inputs": [
        {
          "internalType": "contract ItemManager",
          "name": "_parentContract",
          "type": "address"
        },
        {
          "internalType": "uint256",
          "name": "_priceInWei",
          "type": "uint256"
        },
        {
          "internalType": "uint256",
          "name": "_index",
          "type": "uint256"
        }
      ],
      "stateMutability": "nonpayable",
      "type": "constructor"
    },
    {
      "stateMutability": "nonpayable",
      "type": "fallback"
    },
    {
      "inputs": [],
      "name": "index",
      "outputs": [
        {
          "internalType": "uint256",
          "name": "",
          "type": "uint256"
        }
      ],
      "stateMutability": "view",
      "type": "function"
    },
    {
      "inputs": [],
      "name": "paidWei",
      "outputs": [
        {
          "internalType": "uint256",
          "name": "",
          "type": "uint256"
        }
      ],
      "stateMutability": "view",
      "type": "function"
    },
    {
      "inputs": [],
      "name": "priceInWei",
      "outputs": [
        {
          "internalType": "uint256",
          "name": "",
          "type": "uint256"
        }
      ],
      "stateMutability": "view",
      "type": "function"
    },
    {
      "stateMutability": "payable",
      "type": "receive"
    }
  ],
  "bytecode": "0x608060405234801561001057600080fd5b5060405161077238038061077283398181016040528101906100329190610134565b816000819055508060028190555082600360006101000a81548173ffffffffffffffffffffffffffffffffffffffff021916908373ffffffffffffffffffffffffffffffffffffffff160217905550505050610187565b600080fd5b600073ffffffffffffffffffffffffffffffffffffffff82169050919050565b60006100b98261008e565b9050919050565b60006100cb826100ae565b9050919050565b6100db816100c0565b81146100e657600080fd5b50565b6000815190506100f8816100d2565b92915050565b6000819050919050565b610111816100fe565b811461011c57600080fd5b50565b60008151905061012e81610108565b92915050565b60008060006060848603121561014d5761014c610089565b5b600061015b868287016100e9565b935050602061016c8682870161011f565b925050604061017d8682870161011f565b9150509250925092565b6105dc806101966000396000f3fe6080604052600436106100385760003560e01c80632986c0e51461024e5780633c8da5881461027957806383d12eef146102a457610240565b36610240576000543414610081576040517f08c379a000000000000000000000000000000000000000000000000000000000815260040161007890610364565b60405180910390fd5b6000600154146100c6576040517f08c379a00000000000000000000000000000000000000000000000000000000081526004016100bd906103d0565b60405180910390fd5b34600160008282546100d89190610429565b925050819055506000600360009054906101000a900473ffffffffffffffffffffffffffffffffffffffff1673ffffffffffffffffffffffffffffffffffffffff163460025460405160240161012e919061048e565b6040516020818303038152906040527f800fb83f000000000000000000000000000000000000000000000000000000007bffffffffffffffffffffffffffffffffffffffffffffffffffffffff19166020820180517bffffffffffffffffffffffffffffffffffffffffffffffffffffffff83818316178352505050506040516101b89190610523565b60006040518083038185875af1925050503d80600081146101f5576040519150601f19603f3d011682016040523d82523d6000602084013e6101fa565b606091505b505090508061023e576040517f08c379a000000000000000000000000000000000000000000000000000000000815260040161023590610586565b60405180910390fd5b005b34801561024c57600080fd5b005b34801561025a57600080fd5b506102636102cf565b604051610270919061048e565b60405180910390f35b34801561028557600080fd5b5061028e6102d5565b60405161029b919061048e565b60405180910390f35b3480156102b057600080fd5b506102b96102db565b6040516102c6919061048e565b60405180910390f35b60025481565b60005481565b60015481565b600082825260208201905092915050565b7f576520646f6e277420737570706f7274207061727469616c207061796d656e7460008201527f7300000000000000000000000000000000000000000000000000000000000000602082015250565b600061034e6021836102e1565b9150610359826102f2565b604082019050919050565b6000602082019050818103600083015261037d81610341565b9050919050565b7f4974656d20697320616c72616479207061696421000000000000000000000000600082015250565b60006103ba6014836102e1565b91506103c582610384565b602082019050919050565b600060208201905081810360008301526103e9816103ad565b9050919050565b6000819050919050565b7f4e487b7100000000000000000000000000000000000000000000000000000000600052601160045260246000fd5b6000610434826103f0565b915061043f836103f0565b9250827fffffffffffffffffffffffffffffffffffffffffffffffffffffffffffffffff03821115610474576104736103fa565b5b828201905092915050565b610488816103f0565b82525050565b60006020820190506104a3600083018461047f565b92915050565b600081519050919050565b600081905092915050565b60005b838110156104dd5780820151818401526020810190506104c2565b838111156104ec576000848401525b50505050565b60006104fd826104a9565b61050781856104b4565b93506105178185602086016104bf565b80840191505092915050565b600061052f82846104f2565b915081905092915050565b7f44656c697665727920646964206e6f7420776f726b0000000000000000000000600082015250565b60006105706015836102e1565b915061057b8261053a565b602082019050919050565b6000602082019050818103600083015261059f81610563565b905091905056fea26469706673582212201674e5a18782cdf094fd00881107f3388a67078db31b8bec066fef77f845b7c264736f6c634300080e0033",
  "immutableReferences": {},
  "source": "// SPDX-License-Identifier: MIT\npragma solidity >=0.4.22 <0.9.0;\n\nimport \"./ItemManager.sol\";\n\ncontract Item {\n    uint public priceInWei;\n    uint public paidWei;\n    uint public index;\n\n    ItemManager parentContract;\n\n    constructor(ItemManager _parentContract, uint _priceInWei, uint _index) {\n        priceInWei = _priceInWei;\n        index = _index;\n        parentContract = _parentContract;\n    }\n\n    receive() external payable {\n        require(msg.value == priceInWei, \"We don't support partial payments\");\n        require(paidWei == 0, \"Item is alrady paid!\");\n\n        paidWei += msg.value;\n\n        (bool success, ) = address(parentContract).call{value:msg.value}(abi.encodeWithSignature(\"triggerPayment(uint256)\", index));\n\n        require(success, \"Delivery did not work\");\n    }\n\n    fallback() external {\n        \n    }\n}",
  "sourcePath": "/Users/LJ15PH/dev/solidity/truffle/contracts/Item.sol",
  "compiler": {
    "name": "solc",
    "version": "0.8.14+commit.80d49f37.Emscripten.clang"
  },
  "schemaVersion": "3.4.6",
  "updatedAt": "2022-07-04T22:20:37.263Z",
  "devdoc": {
    "kind": "dev",
    "methods": {},
    "version": 1
  },
  "userdoc": {
    "kind": "user",
    "methods": {},
    "version": 1
  }
}