{
  "contractName": "ItemManager",
  "abi": [
    {
      "anonymous": false,
      "inputs": [
        {
          "indexed": false,
          "internalType": "uint256",
          "name": "_itemIndex",
          "type": "uint256"
        },
        {
          "indexed": false,
          "internalType": "uint256",
          "name": "_step",
          "type": "uint256"
        },
        {
          "indexed": false,
          "internalType": "address",
          "name": "_address",
          "type": "address"
        }
      ],
      "name": "SupplyChainStep",
      "type": "event"
    },
    {
      "inputs": [
        {
          "internalType": "uint256",
          "name": "",
          "type": "uint256"
        }
      ],
      "name": "items",
      "outputs": [
        {
          "internalType": "contract Item",
          "name": "_item",
          "type": "address"
        },
        {
          "internalType": "enum ItemManager.SupplyChainSteps",
          "name": "_step",
          "type": "uint8"
        },
        {
          "internalType": "string",
          "name": "_identifier",
          "type": "string"
        }
      ],
      "stateMutability": "view",
      "type": "function",
      "constant": true
    },
    {
      "inputs": [
        {
          "internalType": "string",
          "name": "_identifier",
          "type": "string"
        },
        {
          "internalType": "uint256",
          "name": "_priceInWei",
          "type": "uint256"
        }
      ],
      "name": "createItem",
      "outputs": [],
      "stateMutability": "nonpayable",
      "type": "function"
    },
    {
      "inputs": [
        {
          "internalType": "uint256",
          "name": "_index",
          "type": "uint256"
        }
      ],
      "name": "triggerPayment",
      "outputs": [],
      "stateMutability": "payable",
      "type": "function",
      "payable": true
    },
    {
      "inputs": [
        {
          "internalType": "uint256",
          "name": "_index",
          "type": "uint256"
        }
      ],
      "name": "triggerDelivery",
      "outputs": [],
      "stateMutability": "nonpayable",
      "type": "function"
    }
  ],
  "bytecode": "0x608060405234801561001057600080fd5b50611875806100206000396000f3fe608060405260043610620000445760003560e01c8063800fb83f14620000495780638c5517421462000069578063bfb231d21462000097578063cd31831e14620000dd575b600080fd5b620000676004803603810190620000619190620008cb565b6200010b565b005b3480156200007657600080fd5b506200009560048036038101906200008f919062000a5f565b620003b7565b005b348015620000a457600080fd5b50620000c36004803603810190620000bd9190620008cb565b62000558565b604051620000d49392919062000c63565b60405180910390f35b348015620000ea57600080fd5b50620001096004803603810190620001039190620008cb565b6200063f565b005b600080600083815260200190815260200160002060000160009054906101000a900473ffffffffffffffffffffffffffffffffffffffff1690503373ffffffffffffffffffffffffffffffffffffffff168173ffffffffffffffffffffffffffffffffffffffff1614620001b6576040517f08c379a0000000000000000000000000000000000000000000000000000000008152600401620001ad9062000d1d565b60405180910390fd5b348173ffffffffffffffffffffffffffffffffffffffff16633c8da5886040518163ffffffff1660e01b8152600401602060405180830381865afa15801562000203573d6000803e3d6000fd5b505050506040513d601f19601f8201168201806040525081019062000229919062000d56565b146200026c576040517f08c379a0000000000000000000000000000000000000000000000000000000008152600401620002639062000dd8565b60405180910390fd5b6000600281111562000283576200028262000b50565b5b60008084815260200190815260200160002060000160149054906101000a900460ff166002811115620002bb57620002ba62000b50565b5b14620002fe576040517f08c379a0000000000000000000000000000000000000000000000000000000008152600401620002f59062000e70565b60405180910390fd5b600160008084815260200190815260200160002060000160146101000a81548160ff021916908360028111156200033a576200033962000b50565b5b02179055507fa4035636e99f06b7651a604c1019fa4e8779fe68ef27eeb74dff2de348f6199b8260008085815260200190815260200160002060000160149054906101000a900460ff16600281111562000399576200039862000b50565b5b83604051620003ab9392919062000ec8565b60405180910390a15050565b60003082600154604051620003cc90620007be565b620003da9392919062000f3e565b604051809103906000f080158015620003f7573d6000803e3d6000fd5b50905080600080600154815260200190815260200160002060000160006101000a81548173ffffffffffffffffffffffffffffffffffffffff021916908373ffffffffffffffffffffffffffffffffffffffff1602179055506000806000600154815260200190815260200160002060000160146101000a81548160ff021916908360028111156200048e576200048d62000b50565b5b02179055508260008060015481526020019081526020016000206001019080519060200190620004c0929190620007cc565b507fa4035636e99f06b7651a604c1019fa4e8779fe68ef27eeb74dff2de348f6199b600154600080600154815260200190815260200160002060000160149054906101000a900460ff1660028111156200051f576200051e62000b50565b5b83604051620005319392919062000ec8565b60405180910390a1600160008154809291906200054e9062000faa565b9190505550505050565b60006020528060005260406000206000915090508060000160009054906101000a900473ffffffffffffffffffffffffffffffffffffffff16908060000160149054906101000a900460ff1690806001018054620005b69062001026565b80601f0160208091040260200160405190810160405280929190818152602001828054620005e49062001026565b8015620006355780601f10620006095761010080835404028352916020019162000635565b820191906000526020600020905b8154815290600101906020018083116200061757829003601f168201915b5050505050905083565b6001600281111562000656576200065562000b50565b5b60008083815260200190815260200160002060000160149054906101000a900460ff1660028111156200068e576200068d62000b50565b5b14620006d1576040517f08c379a0000000000000000000000000000000000000000000000000000000008152600401620006c890620010ab565b60405180910390fd5b600260008083815260200190815260200160002060000160146101000a81548160ff021916908360028111156200070d576200070c62000b50565b5b02179055507fa4035636e99f06b7651a604c1019fa4e8779fe68ef27eeb74dff2de348f6199b8160008084815260200190815260200160002060000160149054906101000a900460ff1660028111156200076c576200076b62000b50565b5b60008085815260200190815260200160002060000160009054906101000a900473ffffffffffffffffffffffffffffffffffffffff16604051620007b39392919062000ec8565b60405180910390a150565b61077280620010ce83390190565b828054620007da9062001026565b90600052602060002090601f016020900481019282620007fe57600085556200084a565b82601f106200081957805160ff19168380011785556200084a565b828001600101855582156200084a579182015b82811115620008495782518255916020019190600101906200082c565b5b5090506200085991906200085d565b5090565b5b80821115620008785760008160009055506001016200085e565b5090565b6000604051905090565b600080fd5b600080fd5b6000819050919050565b620008a58162000890565b8114620008b157600080fd5b50565b600081359050620008c5816200089a565b92915050565b600060208284031215620008e457620008e362000886565b5b6000620008f484828501620008b4565b91505092915050565b600080fd5b600080fd5b6000601f19601f8301169050919050565b7f4e487b7100000000000000000000000000000000000000000000000000000000600052604160045260246000fd5b620009528262000907565b810181811067ffffffffffffffff8211171562000974576200097362000918565b5b80604052505050565b6000620009896200087c565b905062000997828262000947565b919050565b600067ffffffffffffffff821115620009ba57620009b962000918565b5b620009c58262000907565b9050602081019050919050565b82818337600083830152505050565b6000620009f8620009f2846200099c565b6200097d565b90508281526020810184848401111562000a175762000a1662000902565b5b62000a24848285620009d2565b509392505050565b600082601f83011262000a445762000a43620008fd565b5b813562000a56848260208601620009e1565b91505092915050565b6000806040838503121562000a795762000a7862000886565b5b600083013567ffffffffffffffff81111562000a9a5762000a996200088b565b5b62000aa88582860162000a2c565b925050602062000abb85828601620008b4565b9150509250929050565b600073ffffffffffffffffffffffffffffffffffffffff82169050919050565b6000819050919050565b600062000b1062000b0a62000b048462000ac5565b62000ae5565b62000ac5565b9050919050565b600062000b248262000aef565b9050919050565b600062000b388262000b17565b9050919050565b62000b4a8162000b2b565b82525050565b7f4e487b7100000000000000000000000000000000000000000000000000000000600052602160045260246000fd5b6003811062000b935762000b9262000b50565b5b50565b600081905062000ba68262000b7f565b919050565b600062000bb88262000b96565b9050919050565b62000bca8162000bab565b82525050565b600081519050919050565b600082825260208201905092915050565b60005b8381101562000c0c57808201518184015260208101905062000bef565b8381111562000c1c576000848401525b50505050565b600062000c2f8262000bd0565b62000c3b818562000bdb565b935062000c4d81856020860162000bec565b62000c588162000907565b840191505092915050565b600060608201905062000c7a600083018662000b3f565b62000c89602083018562000bbf565b818103604083015262000c9d818462000c22565b9050949350505050565b7f4f6e6c79206974656d732061726520616c6c6f77656420746f2075706461746560008201527f207468656d73656c7665732e0000000000000000000000000000000000000000602082015250565b600062000d05602c8362000bdb565b915062000d128262000ca7565b604082019050919050565b6000602082019050818103600083015262000d388162000cf6565b9050919050565b60008151905062000d50816200089a565b92915050565b60006020828403121562000d6f5762000d6e62000886565b5b600062000d7f8482850162000d3f565b91505092915050565b7f4e6f742066756c6c792070616964207965742e00000000000000000000000000600082015250565b600062000dc060138362000bdb565b915062000dcd8262000d88565b602082019050919050565b6000602082019050818103600083015262000df38162000db1565b9050919050565b7f4974656d206973206675727468657220696e2074686520737570706c7920636860008201527f61696e2e00000000000000000000000000000000000000000000000000000000602082015250565b600062000e5860248362000bdb565b915062000e658262000dfa565b604082019050919050565b6000602082019050818103600083015262000e8b8162000e49565b9050919050565b62000e9d8162000890565b82525050565b600062000eb08262000ac5565b9050919050565b62000ec28162000ea3565b82525050565b600060608201905062000edf600083018662000e92565b62000eee602083018562000e92565b62000efd604083018462000eb7565b949350505050565b600062000f128262000aef565b9050919050565b600062000f268262000f05565b9050919050565b62000f388162000f19565b82525050565b600060608201905062000f55600083018662000f2d565b62000f64602083018562000e92565b62000f73604083018462000e92565b949350505050565b7f4e487b7100000000000000000000000000000000000000000000000000000000600052601160045260246000fd5b600062000fb78262000890565b91507fffffffffffffffffffffffffffffffffffffffffffffffffffffffffffffffff820362000fec5762000feb62000f7b565b5b600182019050919050565b7f4e487b7100000000000000000000000000000000000000000000000000000000600052602260045260246000fd5b600060028204905060018216806200103f57607f821691505b60208210810362001055576200105462000ff7565b5b50919050565b7f4d6179626520746865206974656d206973206e6f74207061696564207965742e600082015250565b60006200109360208362000bdb565b9150620010a0826200105b565b602082019050919050565b60006020820190508181036000830152620010c68162001084565b905091905056fe608060405234801561001057600080fd5b5060405161077238038061077283398181016040528101906100329190610134565b816000819055508060028190555082600360006101000a81548173ffffffffffffffffffffffffffffffffffffffff021916908373ffffffffffffffffffffffffffffffffffffffff160217905550505050610187565b600080fd5b600073ffffffffffffffffffffffffffffffffffffffff82169050919050565b60006100b98261008e565b9050919050565b60006100cb826100ae565b9050919050565b6100db816100c0565b81146100e657600080fd5b50565b6000815190506100f8816100d2565b92915050565b6000819050919050565b610111816100fe565b811461011c57600080fd5b50565b60008151905061012e81610108565b92915050565b60008060006060848603121561014d5761014c610089565b5b600061015b868287016100e9565b935050602061016c8682870161011f565b925050604061017d8682870161011f565b9150509250925092565b6105dc806101966000396000f3fe6080604052600436106100385760003560e01c80632986c0e51461024e5780633c8da5881461027957806383d12eef146102a457610240565b36610240576000543414610081576040517f08c379a000000000000000000000000000000000000000000000000000000000815260040161007890610364565b60405180910390fd5b6000600154146100c6576040517f08c379a00000000000000000000000000000000000000000000000000000000081526004016100bd906103d0565b60405180910390fd5b34600160008282546100d89190610429565b925050819055506000600360009054906101000a900473ffffffffffffffffffffffffffffffffffffffff1673ffffffffffffffffffffffffffffffffffffffff163460025460405160240161012e919061048e565b6040516020818303038152906040527f800fb83f000000000000000000000000000000000000000000000000000000007bffffffffffffffffffffffffffffffffffffffffffffffffffffffff19166020820180517bffffffffffffffffffffffffffffffffffffffffffffffffffffffff83818316178352505050506040516101b89190610523565b60006040518083038185875af1925050503d80600081146101f5576040519150601f19603f3d011682016040523d82523d6000602084013e6101fa565b606091505b505090508061023e576040517f08c379a000000000000000000000000000000000000000000000000000000000815260040161023590610586565b60405180910390fd5b005b34801561024c57600080fd5b005b34801561025a57600080fd5b506102636102cf565b604051610270919061048e565b60405180910390f35b34801561028557600080fd5b5061028e6102d5565b60405161029b919061048e565b60405180910390f35b3480156102b057600080fd5b506102b96102db565b6040516102c6919061048e565b60405180910390f35b60025481565b60005481565b60015481565b600082825260208201905092915050565b7f576520646f6e277420737570706f7274207061727469616c207061796d656e7460008201527f7300000000000000000000000000000000000000000000000000000000000000602082015250565b600061034e6021836102e1565b9150610359826102f2565b604082019050919050565b6000602082019050818103600083015261037d81610341565b9050919050565b7f4974656d20697320616c72616479207061696421000000000000000000000000600082015250565b60006103ba6014836102e1565b91506103c582610384565b602082019050919050565b600060208201905081810360008301526103e9816103ad565b9050919050565b6000819050919050565b7f4e487b7100000000000000000000000000000000000000000000000000000000600052601160045260246000fd5b6000610434826103f0565b915061043f836103f0565b9250827fffffffffffffffffffffffffffffffffffffffffffffffffffffffffffffffff03821115610474576104736103fa565b5b828201905092915050565b610488816103f0565b82525050565b60006020820190506104a3600083018461047f565b92915050565b600081519050919050565b600081905092915050565b60005b838110156104dd5780820151818401526020810190506104c2565b838111156104ec576000848401525b50505050565b60006104fd826104a9565b61050781856104b4565b93506105178185602086016104bf565b80840191505092915050565b600061052f82846104f2565b915081905092915050565b7f44656c697665727920646964206e6f7420776f726b0000000000000000000000600082015250565b60006105706015836102e1565b915061057b8261053a565b602082019050919050565b6000602082019050818103600083015261059f81610563565b905091905056fea26469706673582212201674e5a18782cdf094fd00881107f3388a67078db31b8bec066fef77f845b7c264736f6c634300080e0033a2646970667358221220316516a14e32d883754f80d852124d1ba5c9a5acb52f471534387497f84819dc64736f6c634300080e0033",
  "immutableReferences": {},
  "source": "// SPDX-License-Identifier: MIT\npragma solidity >=0.4.22 <0.9.0;\n\nimport \"./Item.sol\";\n\ncontract ItemManager {\n  enum SupplyChainSteps{\n    Created, \n    Paid, \n    Delivered\n  }\n\n  struct S_Item {\n    Item _item;\n    ItemManager.SupplyChainSteps _step;\n    string _identifier;\n  }\n\n  mapping(uint => S_Item) public items;\n  uint index;\n\n  event SupplyChainStep(uint _itemIndex, uint _step, address _address);\n\n  function createItem(string memory _identifier, uint _priceInWei) public {\n    Item item = new Item(this, _priceInWei, index);\n    items[index]._item = item;\n    items[index]._step = SupplyChainSteps.Created;\n    items[index]._identifier = _identifier;\n\n    emit SupplyChainStep(index, uint(items[index]._step), address(item));\n    index++;\n  }\n\n  function triggerPayment(uint _index) public payable {\n    Item item = items[_index]._item;\n\n    require(address(item) == msg.sender, \"Only items are allowed to update themselves.\");\n    require(item.priceInWei() == msg.value, \"Not fully paid yet.\");\n    require(items[_index]._step == SupplyChainSteps.Created, \"Item is further in the supply chain.\");\n\n    items[_index]._step = SupplyChainSteps.Paid;\n    emit SupplyChainStep(_index, uint(items[_index]._step), address(item));\n  }\n\n  function triggerDelivery(uint _index) public {\n    require(items[_index]._step == SupplyChainSteps.Paid, \"Maybe the item is not paied yet.\");\n\n    items[_index]._step = SupplyChainSteps.Delivered;\n    emit SupplyChainStep(_index, uint(items[_index]._step), address(items[_index]._item));\n  }\n}\n",
  "sourcePath": "/Users/LJ15PH/dev/solidity/truffle/contracts/ItemManager.sol",
  "compiler": {
    "name": "solc",
    "version": "0.8.14+commit.80d49f37.Emscripten.clang"
  },
  "schemaVersion": "3.4.6",
  "updatedAt": "2022-07-05T09:09:51.812Z",
  "networkType": "ethereum",
  "devdoc": {
    "kind": "dev",
    "methods": {},
    "version": 1
  },
  "userdoc": {
    "kind": "user",
    "methods": {},
    "version": 1
  }
}